:1000000040C064C063C062C061C060C05FC05EC009
:100010005DC070C55BC03CC516C558C057C056C052
:1000200055C0B2C553C00000000037003400310095
:1000300000000000380035003200000000003600EB
:100040003300300004040404040404040202020225
:10005000020203030303030301020408102040808B
:100060000102040810200102040810200000000012
:100070000000000000030406000000000000000073
:10008000E80611241FBECFE5D4E0DEBFCDBF22E0DD
:10009000A2EFB0E001C01D92A434B207E1F710E076
:1000A000A0E6B0E0E8E5F2E102C005900D92A23FC3
:1000B000B107D9F710E0C1E4D0E003C02197FE01F9
:1000C0006BD8C034D107D1F7C9D6C4C899CFCF9265
:1000D000DF92EF92FF920F931F93CF93DF936C0108
:1000E0007A018B01C0E0D0E0CE15DF0589F0D801A0
:1000F0006D918D01D601ED91FC910190F081E02D83
:10010000C6010995892B11F47E0102C02196ECCF1E
:10011000C701DF91CF911F910F91FF90EF90DF907A
:10012000CF900895FC01918D828D981761F0828D9A
:10013000DF01A80FB11D5D968C91928D9F5F9F731B
:10014000928F90E008958FEF9FEF0895FC01918DBD
:10015000828D981731F0828DE80FF11D858D90E02A
:1001600008958FEF9FEF0895FC01918D228D892FC7
:1001700090E0805C9F4F821B91098F7399270895AF
:100180008FE891E0F1DF21E0892B09F420E0822F54
:100190000895FC01848DDF01A80FB11DA35ABF4F44
:1001A0002C91848D90E001968F739927848FA68976
:1001B000B7892C93A089B1898C9180648C93938D9D
:1001C000848D981306C00288F389E02D80818F7D8D
:1001D00080830895EF92FF920F931F93CF93DF9345
:1001E000EC0181E0888F9B8D8C8D981305C0E88988
:1001F000F989808185FD23C0F62E0B8D10E00F5FFD
:100200001F4F0F731127E02E8C8DE8120BC00FB615
:1002100007FCFACFE889F989808185FFF5CFCE0107
:10022000B8DFF2CF8B8DFE01E80FF11DE35AFF4FCF
:10023000F0820B8FEA89FB898081806207C0EE899A
:10024000FF896083E889F98980818064808381E007
:1002500090E0DF91CF911F910F91FF90EF90089563
:10026000CF93DF93EC01888D8823C1F0EA89FB8965
:10027000808185FD05C0A889B9898C9186FD0EC055
:100280000FB607FCF5CF808185FFF2CFA889B98929
:100290008C9185FFEDCFCE017CDFE8CFDF91CF9150
:1002A000089580E090E0892B19F06ADF8111A8CED3
:1002B0000895843039F0863049F0833051F48FB599
:1002C0008F7702C08FB58F7D8FBD089585B58F7DE7
:1002D00085BD0895CF93DF93282F30E0F901E459CD
:1002E000FF4F8491F901E85AFF4FD491F901EC5B7B
:1002F000FF4FC491CC2389F08111DBDFEC2FF0E0BC
:10030000EE0FFF1FE65CFF4FA591B491EC91ED233A
:1003100081E090E021F480E002C080E090E0DF9195
:10032000CF9108951F93CF93DF93282F30E0F901E9
:10033000E459FF4F8491F901E85AFF4FD491F90134
:10034000EC5BFF4FC491CC23C1F0162F8111B1DFBC
:10035000EC2FF0E0EE0FFF1FE05DFF4FA591B49191
:100360008FB7F894111105C09C91ED2FE095E9230A
:1003700002C0EC91ED2BEC938FBFDF91CF911F91D9
:100380000895CF93DF9390E0FC01E85AFF4F24914A
:10039000FC01EC5BFF4F8491882361F190E0880FB2
:1003A000991FFC01EA5DFF4FC591D491FC01E05D0E
:1003B000FF4FA591B491611109C09FB7F89488814E
:1003C000209582238883EC912E230BC0623061F448
:1003D0009FB7F8943881822F809583238883EC918E
:1003E0002E2B2C939FBF06C08FB7F894E8812E2B3D
:1003F00028838FBFDF91CF9108951F93CF93DF9311
:10040000182FEB0161E0BDDF209711F460E004C01C
:10041000CF3FD10531F461E0812FDF91CF911F9162
:1004200081CFE12FF0E0E459FF4FE491E43051F047
:10043000E63071F0E33089F48FB580688FBDDBBDA5
:10044000CABD0FC08FB580628FBDD9BDC8BD09C000
:1004500085B5806285BDC3BD04C0C038D105DCF65A
:10046000D5CFDF91CF911F9108953FB7F894809138
:10047000840190918501A0918601B091870122B7F6
:1004800008B600FE05C02F3F19F00196A11DB11D51
:100490003FBFBA2FA92F982F8827820F911DA11D2A
:1004A000B11DBC01CD0142E0660F771F881F991F67
:1004B0004A95D1F708958F929F92AF92BF92CF92B3
:1004C000DF92EF92FF926B017C01CFDF4B015C0169
:1004D000C114D104E104F104E9F0C7DFDC01CB0170
:1004E00088199909AA09BB09883E9340A105B1055D
:1004F00078F321E0C21AD108E108F10888EE880EED
:1005000083E0981EA11CB11CC114D104E104F104C4
:1005100021F7DECFFF90EF90DF90CF90BF90AF90AC
:100520009F908F90089585ED86BF06B604FCFDCFA1
:1005300010928A01089540911401262F30E0240F73
:10054000311D21323105DCF420918A012430C9F4B7
:10055000FC0180E090E0861758F43091140121915D
:10056000DC01AE50BF4FA30FB11D2C930196F3CF0A
:1005700080911401680F6093140180E0089581E078
:10058000089582E00895089581E090E030918E0111
:1005900020918D01321710F480E090E091958195C3
:1005A0009109089580918E0190918D01891730F401
:1005B0008F5F80938E0180E090E008958FEF9FEF32
:1005C000089580918D0190E020918E01821B910908
:1005D0000895CF92DF92EF92FF920F931F93CF93E4
:1005E000DF937C01262F972F8A0180915D0188235C
:1005F00091F0C62FD72F6E01C40ED51ECC15DD0588
:1006000069F06991D701ED91FC910190F081E02DA5
:10061000C7010995F3CF642F822F8DDFC801DF91C9
:10062000CF911F910F91FF90EF90DF90CF900895A1
:10063000CF93DF931F92CDB7DEB7698320915D0121
:100640002223D1F020918B01203240F021E030E0D4
:10065000FC013383228380E090E014C080918C0100
:10066000E82FF0E0E25AFE4F998190838F5F8093EC
:100670008C0180938B0104C061E0CE0101965BDFA9
:1006800081E090E00F90DF91CF910895CF93FC012E
:10069000C48121E020935D01C0937E0110928C0102
:1006A00010928B018385682B8CE292E0C1DF8091F0
:1006B0008B01813208F043C090918A019111FCCFE7
:1006C00092E090938A0191E0909389019FEF90933B
:1006D0005C0110925B0180935A01AEE5B1E02AE320
:1006E00031E0F9019E2F921B981718F49D91919378
:1006F000F9CF1092390180913901CC0FC82BC093EA
:10070000390180918801813051F4109288018091E3
:10071000390183B906B603FCFACF85EC01C085EE3A
:1007200086BF80918A018230E1F380915C018F3F26
:1007300031F080915C01803211F080915C01109267
:100740008C0110928B0110925D01CF9108950F934F
:100750001F93CF938C01C62F99DF6C2F6460C80163
:1007600095DF6C2F6B7FC80191DF83EC90E00197E0
:10077000F1F7CF911F910F910895FF920F931F935F
:10078000CF93DF931F92CDB7DEB78C01F62E962F55
:10079000907F692F642BC8014983D9DF80E1F89EDF
:1007A000B00111244981642BC8010F90DF91CF91D2
:1007B0001F910F91FF90CBCFCF93DF93CDB7DEB7D3
:1007C00028970FB6F894DEBF0FBECDBF28E0EAE64B
:1007D000F0E0DE01119601900D922A95E1F720914B
:1007E0004002261710F46FEF620FFE013196E60FFC
:1007F000F11DE60FF11D9081682F690F606840E0E0
:1008000088E392E028960FB6F894DEBF0FBECDBF06
:10081000DF91CF91B2CFCF93DF9310928E011092E0
:100820008D0110928C0110928B0110928A0181E04F
:10083000809389011092880161E082E173DD61E0BB
:1008400083E170DD0898099888E480B985E486BF63
:1008500010923D0280914202823018F098E090930D
:100860003D028093400262E370E080E090E023DE8E
:100870006091430288E392E009DF68EE73E080E074
:1008800090E019DE60E388E392E061DFCBE4D6E438
:10089000CE010197F1F760E388E392E058DF2197FA
:1008A000F1F760E388E392E052DF83E592E001979D
:1008B000F1F760E288E392E04ADF60913D02606216
:1008C00040E088E392E059DF84E080933E0240E01C
:1008D0006CE088E392E051DF40E061E088E392E081
:1008E0004CDFCBE3DFE1CE010197F1F782E08093AB
:1008F0003F0240E066E088E392E03FDF40E062E0F4
:1009000088E392E03ADF2197F1F7DF91CF910895E4
:1009100041E033DF81E090E0089544D46115710532
:1009200079F0FB0101900020E9F73197AF01461BF8
:10093000570BDC01ED91FC910280F381E02D0994CD
:1009400080E090E008954F925F926F927F928F9235
:100950009F92AF92BF92CF92DF92EF92FF920F934E
:100960001F93CF93DF93CDB7DEB7A1970FB6F8945F
:10097000DEBF0FBECDBF8C016B01770FEE08FF0805
:10098000F7FE2DC0DC01ED91FC910190F081E02D8E
:100990006DE209955C0122273327A9012C193D0935
:1009A0004E095F0919A2FE01B1967F019AE0492E16
:1009B000512C612C712CCA01B901A30192011CD4E4
:1009C000605DD7016E937D0121153105410551050B
:1009D00091F7BD01C801A2DF8A0D9B1D1CC0A701B4
:1009E000960119A2FE01B1967F018AE0882E912C12
:1009F000A12CB12CCA01B901A5019401FDD3605D00
:100A0000D7016E937D01211531054105510591F7FF
:100A1000BD01C80183DFA1960FB6F894DEBF0FBEFB
:100A2000CDBFDF91CF911F910F91FF90EF90DF909D
:100A3000CF90BF90AF909F908F907F906F905F907E
:100A40004F9008956BCF1F920F920FB60F92112403
:100A50002F933F934F935F936F937F938F939F93C6
:100A6000AF93BF93EF93FF938FE891E092DBFF91F9
:100A7000EF91BF91AF919F918F917F916F915F9116
:100A80004F913F912F910F900FBE0F901F9018958F
:100A90001F920F920FB60F9211242F938F939F9353
:100AA000EF93FF93E0919F01F091A0018081E0918D
:100AB000A501F091A60182FD12C090818091A8014C
:100AC0008F5F8F732091A901821751F0E091A801E7
:100AD000F0E0E157FE4F958F8093A80101C080811F
:100AE000FF91EF919F918F912F910F900FBE0F90DB
:100AF0001F9018951F920F920FB60F9211242F93EB
:100B00003F938F939F93AF93BF9380918001909178
:100B10008101A0918201B091830130917F0123E096
:100B2000230F2D3720F40196A11DB11D05C026E825
:100B3000230F0296A11DB11D20937F018093800198
:100B400090938101A0938201B093830180918401ED
:100B500090918501A0918601B09187010196A11D18
:100B6000B11D8093840190938501A0938601B09379
:100B70008701BF91AF919F918F913F912F910F90DE
:100B80000FBE0F901F9018951F920F920FB60F92E5
:100B900011242F933F934F935F936F937F938F9382
:100BA0009F93AF93BF93EF93FF9381B1887F80367C
:100BB00009F499C068F5883209F45BC090F480317B
:100BC00009F454C038F4882309F4EEC0883009F4DD
:100BD0004DC0EDC0883109F44CC0803209F45CC0CE
:100BE000E6C0803409F466C048F4803309F454C088
:100BF000883309F0DCC080935C01D1C0803509F4F2
:100C00004EC0883509F45BC0883409F0D0C0CEC02E
:100C1000883909F4C1C0A8F4883709F464C038F4ED
:100C2000883609F460C0803709F45DC0C0C08838D8
:100C300009F4B2C0803909F45CC0803809F0B7C04B
:100C400058C0803B09F481C038F4803A09F462C08E
:100C5000883A09F47AC0ABC0803C09F4A0C0883C53
:100C600009F49DC0883B09F485C0A1C08091390179
:100C700010C090915B0180915A01981758F5E0914E
:100C80005B0181E08E0F80935B01F0E0E65CFE4F3C
:100C9000808183B985EC81C080935C0187C0E0913D
:100CA0005B0181E08E0F80935B0183B1F0E0E65C35
:100CB000FE4F808390915B0180915A016AC0E09160
:100CC0005B0181E08E0F80935B0183B1F0E0E65C15
:100CD000FE4F808380918901811168C081E08093FB
:100CE000880184EA5DC083E080938A011092380114
:100CF000D1CF80913801803208F04EC0E0913801A8
:100D000081E08E0F8093380183B1F0E0E85EFE4F02
:100D10008083C0CF85EC86BF10928A018091380114
:100D2000803230F4E0913801F0E0E85EFE4F10824E
:100D30006091380170E0E0911601F091170188E1AF
:100D400091E009951092380132C084E080938A01C5
:100D50001092150110921401E0911201F09113010B
:100D6000099580911401811105C081E080931401DF
:100D70001092F200E091150181E08E0F8093150131
:100D8000F0E0EE50FF4F808183B990911501809182
:100D90001401981708F47ECF85E886BF08C085EC5B
:100DA00086BF10928A0103C010925C01BCDBFF91E8
:100DB000EF91BF91AF919F918F917F916F915F91D3
:100DC0004F913F912F910F900FBE0F901F9018954C
:100DD000EFE8F1E01382128288EE93E0A0E0B0E049
:100DE00084839583A683B78326E730E0318320830D
:100DF00020E430E03587248749E250E05787468772
:100E00004BE250E0518B408B4AE250E0538B428BD7
:100E1000358B248B2CE230E0378B268B118E128E93
:100E2000138E148EECE2F2E0138212828483958397
:100E3000A683B78386E890E091838083E8E3F2E0BD
:100E40001382128286E990E09183808387E2848313
:100E500080E1818782E0828713860895789483B742
:100E6000826083BF83B7816083BF89B7816089BF98
:100E70001EBC8EB582608EBD8EB581608EBD8FB575
:100E800081608FBD85B5846085BD85B5806485BD75
:100E9000329A319A309A379A1AB860E08EE071DA55
:100EA00060E080E16EDA60E08DE06BDA61E08BE0BB
:100EB00068DA61E08AE065DA60E08BE033DA60E00E
:100EC0008AE030DAE0919F01F091A00182E0808316
:100ED000E0919B01F0919C011082E0919D01F091C5
:100EE0009E018FEC80831092A701E091A301F09105
:100EF000A40186E88083E091A101F091A2018081A4
:100F000080618083E091A101F091A20180818860DD
:100F10008083E091A101F091A201808180688083AB
:100F2000E091A101F091A20180818F7D808373DC2B
:100F300072DC88E08093430260E088E392E0A6DB05
:100F400060E080E039DC6AE970E088E392E07ADD15
:100F500061E080E031DC6BEA70E088E392E072DD12
:100F600083E4982E98EC492E512C612C712C8EE044
:100F7000B1D96C0161E070E080E090E09CDA80E142
:100F8000A9D97C0161E070E080E090E094DA8DE026
:100F9000A1D95C0161E070E080E090E08CDA97B864
:100FA000369A3699FECFC4B185B1D0E0D82BCE3178
:100FB000D1053CF08E01C73ED1052CF006EE10E0C5
:100FC00002C00EE110E0C801012E000CAA0BBB0B01
:100FD0009C01AD012E51310941095109A1EEB0E04A
:100FE00001D1A3019201E2D0DA01C9014E96A11DFF
:100FF000B11D9093650080936400AB2809F077C021
:1010000060E086E0D9DBB60188E392E09CDC60E03A
:1010100088E0D2DBB70188E392E095DC61E084E010
:10102000CBDBBE0188E392E08EDCC436D10544F40C
:1010300061E086E0C1DB6AEB70E088E392E002DD0C
:1010400060E08DE0B9DBB80188E392E07CDC043637
:10105000110544F460E08FE0AFDB6AEB70E088E3F9
:1010600092E0F0DC61E08DE0A7DB609164007091BC
:10107000650088E392E067DC8091640090916500F0
:101080008436910544F461E08FE096DB6AEB70E012
:1010900088E392E0D7DC6CEB70E08FE891E0D2DC83
:1010A000B6018FE891E04FDC67EC70E08FE891E0EB
:1010B000C9DCB7018FE891E046DC64ED70E08FE8B1
:1010C00091E0C0DCB8018FE891E03DDC65EE70E0B6
:1010D0008FE891E0B7DC60916400709165008FE863
:1010E00091E031DC61E070E080E090E004C066E116
:1010F00070E080E090E0DFD9C114D10491F46091F8
:10110000620070916300809164009091650068179F
:1011100079071CF46F5F7F4F10C0861797079CF408
:101120000AC0CA94CD2879F460916200709163007E
:101130001616170644F461507109709363006093AA
:1011400062008BE05AD9E114F10491F460916000DF
:101150007091610080916400909165006817790733
:101160001CF46F5F7F4F10C0861797079CF40AC06E
:10117000EA94EF2879F4609160007091610016168E
:10118000170644F461507109709361006093600028
:101190008AE033D986D8EBCEEE0FFF1F0590F4918D
:1011A000E02D099481E090E0F89454C0052E97FB5F
:1011B00016F400940FD057FD05D01ED007FC02D0C6
:1011C00046F408C050954095309521953F4F4F4FBC
:1011D0005F4F089590958095709561957F4F8F4FE3
:1011E0009F4F08952BD0A59F900DB49F900DA49F65
:1011F000800D911D11240895A1E21A2EAA1BBB1B7C
:10120000FD010DC0AA1FBB1FEE1FFF1FA217B307D2
:10121000E407F50720F0A21BB30BE40BF50B661FE8
:10122000771F881F991F1A9469F7609570958095AC
:1012300090959B01AC01BD01CF010895A29FB00123
:10124000B39FC001A39F01D0B29F700D811D1124D7
:08125000911D0895F894FFCFF1
:10125800320032001E0001000000000040001400AF
:10126800540000000000EA006700B4009200A600E5
:101278003001000000001803E902E102D202C402B2
:10128800C30200000000880467005377312F323A08
:10129800202F202073763A202020005241573A20F0
:1012A800202020466164653A202020005377697425
:1012B80063682D313A20002C205377697463682DB8
:1012C800323A20002C204F70746F52657369737422
:1012D8006F723A20002C206D6178466164653A206F
:0212E800000004
:00000001FF
